{"abi":[{"type":"constructor","inputs":[{"name":"_router","type":"address","internalType":"address"}],"stateMutability":"nonpayable"},{"type":"function","name":"createToken","inputs":[{"name":"name","type":"string","internalType":"string"},{"name":"symbol","type":"string","internalType":"string"},{"name":"_initialMint","type":"uint256","internalType":"uint256"}],"outputs":[{"name":"tokenAddr","type":"address","internalType":"address"},{"name":"marketAddr","type":"address","internalType":"address"}],"stateMutability":"nonpayable"},{"type":"function","name":"owner","inputs":[],"outputs":[{"name":"","type":"address","internalType":"address"}],"stateMutability":"view"},{"type":"function","name":"router","inputs":[],"outputs":[{"name":"","type":"address","internalType":"address"}],"stateMutability":"view"},{"type":"function","name":"setRouter","inputs":[{"name":"_router","type":"address","internalType":"address"}],"outputs":[],"stateMutability":"nonpayable"},{"type":"function","name":"tokenToMarket","inputs":[{"name":"","type":"address","internalType":"address"}],"outputs":[{"name":"","type":"address","internalType":"address"}],"stateMutability":"view"},{"type":"event","name":"TokenAndMarketCreated","inputs":[{"name":"token","type":"address","indexed":true,"internalType":"address"},{"name":"market","type":"address","indexed":true,"internalType":"address"},{"name":"creator","type":"address","indexed":true,"internalType":"address"}],"anonymous":false}],"bytecode":{"object":"0x608060405234801561000f575f5ffd5b50604051613f9a380380613f9a83398181016040528101906100319190610114565b335f5f6101000a81548173ffffffffffffffffffffffffffffffffffffffff021916908373ffffffffffffffffffffffffffffffffffffffff1602179055508060015f6101000a81548173ffffffffffffffffffffffffffffffffffffffff021916908373ffffffffffffffffffffffffffffffffffffffff1602179055505061013f565b5f5ffd5b5f73ffffffffffffffffffffffffffffffffffffffff82169050919050565b5f6100e3826100ba565b9050919050565b6100f3816100d9565b81146100fd575f5ffd5b50565b5f8151905061010e816100ea565b92915050565b5f60208284031215610129576101286100b6565b5b5f61013684828501610100565b91505092915050565b613e4e8061014c5f395ff3fe608060405234801561000f575f5ffd5b5060043610610055575f3560e01c80635b060530146100595780638da5cb5b1461008a578063c0d78655146100a8578063f02db70d146100c4578063f887ea40146100f4575b5f5ffd5b610073600480360381019061006e91906105ca565b610112565b604051610081929190610691565b60405180910390f35b6100926102e6565b60405161009f91906106b8565b60405180910390f35b6100c260048036038101906100bd91906106fb565b61030a565b005b6100de60048036038101906100d991906106fb565b6103db565b6040516100eb91906106b8565b60405180910390f35b6100fc61040b565b60405161010991906106b8565b60405180910390f35b5f5f5f85855f3060405161012590610430565b61013294939291906107c8565b604051809103905ff08015801561014b573d5f5f3e3d5ffd5b5090508092505f8360405161015f9061043d565b61016991906106b8565b604051809103905ff080158015610182573d5f5f3e3d5ffd5b5090508092508173ffffffffffffffffffffffffffffffffffffffff166340c10f1984876040518363ffffffff1660e01b81526004016101c3929190610828565b5f604051808303815f87803b1580156101da575f5ffd5b505af11580156101ec573d5f5f3e3d5ffd5b505050508260025f8673ffffffffffffffffffffffffffffffffffffffff1673ffffffffffffffffffffffffffffffffffffffff1681526020019081526020015f205f6101000a81548173ffffffffffffffffffffffffffffffffffffffff021916908373ffffffffffffffffffffffffffffffffffffffff1602179055503373ffffffffffffffffffffffffffffffffffffffff168373ffffffffffffffffffffffffffffffffffffffff168573ffffffffffffffffffffffffffffffffffffffff167f20ea9408107953e0c557eda3627bf0bbbe40ab99202c056a21c4cfd4bbe4464560405160405180910390a45050935093915050565b5f5f9054906101000a900473ffffffffffffffffffffffffffffffffffffffff1681565b5f5f9054906101000a900473ffffffffffffffffffffffffffffffffffffffff1673ffffffffffffffffffffffffffffffffffffffff163373ffffffffffffffffffffffffffffffffffffffff1614610398576040517f08c379a000000000000000000000000000000000000000000000000000000000815260040161038f90610899565b60405180910390fd5b8060015f6101000a81548173ffffffffffffffffffffffffffffffffffffffff021916908373ffffffffffffffffffffffffffffffffffffffff16021790555050565b6002602052805f5260405f205f915054906101000a900473ffffffffffffffffffffffffffffffffffffffff1681565b60015f9054906101000a900473ffffffffffffffffffffffffffffffffffffffff1681565b6118dc806108b883390190565b611c858061219483390190565b5f604051905090565b5f5ffd5b5f5ffd5b5f5ffd5b5f5ffd5b5f601f19601f8301169050919050565b7f4e487b71000000000000000000000000000000000000000000000000000000005f52604160045260245ffd5b6104a982610463565b810181811067ffffffffffffffff821117156104c8576104c7610473565b5b80604052505050565b5f6104da61044a565b90506104e682826104a0565b919050565b5f67ffffffffffffffff82111561050557610504610473565b5b61050e82610463565b9050602081019050919050565b828183375f83830152505050565b5f61053b610536846104eb565b6104d1565b9050828152602081018484840111156105575761055661045f565b5b61056284828561051b565b509392505050565b5f82601f83011261057e5761057d61045b565b5b813561058e848260208601610529565b91505092915050565b5f819050919050565b6105a981610597565b81146105b3575f5ffd5b50565b5f813590506105c4816105a0565b92915050565b5f5f5f606084860312156105e1576105e0610453565b5b5f84013567ffffffffffffffff8111156105fe576105fd610457565b5b61060a8682870161056a565b935050602084013567ffffffffffffffff81111561062b5761062a610457565b5b6106378682870161056a565b9250506040610648868287016105b6565b9150509250925092565b5f73ffffffffffffffffffffffffffffffffffffffff82169050919050565b5f61067b82610652565b9050919050565b61068b81610671565b82525050565b5f6040820190506106a45f830185610682565b6106b16020830184610682565b9392505050565b5f6020820190506106cb5f830184610682565b92915050565b6106da81610671565b81146106e4575f5ffd5b50565b5f813590506106f5816106d1565b92915050565b5f602082840312156107105761070f610453565b5b5f61071d848285016106e7565b91505092915050565b5f81519050919050565b5f82825260208201905092915050565b8281835e5f83830152505050565b5f61075882610726565b6107628185610730565b9350610772818560208601610740565b61077b81610463565b840191505092915050565b5f819050919050565b5f819050919050565b5f6107b26107ad6107a884610786565b61078f565b610597565b9050919050565b6107c281610798565b82525050565b5f6080820190508181035f8301526107e0818761074e565b905081810360208301526107f4818661074e565b905061080360408301856107b9565b6108106060830184610682565b95945050505050565b61082281610597565b82525050565b5f60408201905061083b5f830185610682565b6108486020830184610819565b9392505050565b7f6f6e6c79206f776e6572000000000000000000000000000000000000000000005f82015250565b5f610883600a83610730565b915061088e8261084f565b602082019050919050565b5f6020820190508181035f8301526108b081610877565b905091905056fe6080604052601260025f6101000a81548160ff021916908360ff16021790555034801561002a575f5ffd5b506040516118dc3803806118dc833981810160405281019061004c91906103e9565b835f908161005a919061068c565b50826001908161006a919061068c565b503360065f6101000a81548173ffffffffffffffffffffffffffffffffffffffff021916908373ffffffffffffffffffffffffffffffffffffffff1602179055505f8211156100c4576100c381836100cd60201b60201c565b5b5050505061085b565b5f73ffffffffffffffffffffffffffffffffffffffff168273ffffffffffffffffffffffffffffffffffffffff160361013b576040517f08c379a0000000000000000000000000000000000000000000000000000000008152600401610132906107b5565b60405180910390fd5b8060035f82825461014c9190610800565b925050819055508060045f8473ffffffffffffffffffffffffffffffffffffffff1673ffffffffffffffffffffffffffffffffffffffff1681526020019081526020015f205f82825461019f9190610800565b925050819055508173ffffffffffffffffffffffffffffffffffffffff165f73ffffffffffffffffffffffffffffffffffffffff167fddf252ad1be2c89b69c2b068fc378daa952ba7f163c4a11628f55a4df523b3ef836040516102039190610842565b60405180910390a35050565b5f604051905090565b5f5ffd5b5f5ffd5b5f5ffd5b5f5ffd5b5f601f19601f8301169050919050565b7f4e487b71000000000000000000000000000000000000000000000000000000005f52604160045260245ffd5b61026e82610228565b810181811067ffffffffffffffff8211171561028d5761028c610238565b5b80604052505050565b5f61029f61020f565b90506102ab8282610265565b919050565b5f67ffffffffffffffff8211156102ca576102c9610238565b5b6102d382610228565b9050602081019050919050565b8281835e5f83830152505050565b5f6103006102fb846102b0565b610296565b90508281526020810184848401111561031c5761031b610224565b5b6103278482856102e0565b509392505050565b5f82601f83011261034357610342610220565b5b81516103538482602086016102ee565b91505092915050565b5f819050919050565b61036e8161035c565b8114610378575f5ffd5b50565b5f8151905061038981610365565b92915050565b5f73ffffffffffffffffffffffffffffffffffffffff82169050919050565b5f6103b88261038f565b9050919050565b6103c8816103ae565b81146103d2575f5ffd5b50565b5f815190506103e3816103bf565b92915050565b5f5f5f5f6080858703121561040157610400610218565b5b5f85015167ffffffffffffffff81111561041e5761041d61021c565b5b61042a8782880161032f565b945050602085015167ffffffffffffffff81111561044b5761044a61021c565b5b6104578782880161032f565b93505060406104688782880161037b565b9250506060610479878288016103d5565b91505092959194509250565b5f81519050919050565b7f4e487b71000000000000000000000000000000000000000000000000000000005f52602260045260245ffd5b5f60028204905060018216806104d357607f821691505b6020821081036104e6576104e561048f565b5b50919050565b5f819050815f5260205f209050919050565b5f6020601f8301049050919050565b5f82821b905092915050565b5f600883026105487fffffffffffffffffffffffffffffffffffffffffffffffffffffffffffffffff8261050d565b610552868361050d565b95508019841693508086168417925050509392505050565b5f819050919050565b5f61058d6105886105838461035c565b61056a565b61035c565b9050919050565b5f819050919050565b6105a683610573565b6105ba6105b282610594565b848454610519565b825550505050565b5f5f905090565b6105d16105c2565b6105dc81848461059d565b505050565b5b818110156105ff576105f45f826105c9565b6001810190506105e2565b5050565b601f82111561064457610615816104ec565b61061e846104fe565b8101602085101561062d578190505b610641610639856104fe565b8301826105e1565b50505b505050565b5f82821c905092915050565b5f6106645f1984600802610649565b1980831691505092915050565b5f61067c8383610655565b9150826002028217905092915050565b61069582610485565b67ffffffffffffffff8111156106ae576106ad610238565b5b6106b882546104bc565b6106c3828285610603565b5f60209050601f8311600181146106f4575f84156106e2578287015190505b6106ec8582610671565b865550610753565b601f198416610702866104ec565b5f5b8281101561072957848901518255600182019150602085019450602081019050610704565b868310156107465784890151610742601f891682610655565b8355505b6001600288020188555050505b505050505050565b5f82825260208201905092915050565b7f6d696e7420746f207a65726f00000000000000000000000000000000000000005f82015250565b5f61079f600c8361075b565b91506107aa8261076b565b602082019050919050565b5f6020820190508181035f8301526107cc81610793565b9050919050565b7f4e487b71000000000000000000000000000000000000000000000000000000005f52601160045260245ffd5b5f61080a8261035c565b91506108158361035c565b925082820190508082111561082d5761082c6107d3565b5b92915050565b61083c8161035c565b82525050565b5f6020820190506108555f830184610833565b92915050565b611074806108685f395ff3fe608060405234801561000f575f5ffd5b50600436106100a7575f3560e01c806340c10f191161006f57806340c10f191461016557806370a08231146101815780638da5cb5b146101b157806395d89b41146101cf578063a9059cbb146101ed578063dd62ed3e1461021d576100a7565b806306fdde03146100ab578063095ea7b3146100c957806318160ddd146100f957806323b872dd14610117578063313ce56714610147575b5f5ffd5b6100b361024d565b6040516100c09190610ae7565b60405180910390f35b6100e360048036038101906100de9190610b98565b6102d8565b6040516100f09190610bf0565b60405180910390f35b6101016103c5565b60405161010e9190610c18565b60405180910390f35b610131600480360381019061012c9190610c31565b6103cb565b60405161013e9190610bf0565b60405180910390f35b61014f61058c565b60405161015c9190610c9c565b60405180910390f35b61017f600480360381019061017a9190610b98565b61059e565b005b61019b60048036038101906101969190610cb5565b61063b565b6040516101a89190610c18565b60405180910390f35b6101b9610650565b6040516101c69190610cef565b60405180910390f35b6101d7610675565b6040516101e49190610ae7565b60405180910390f35b61020760048036038101906102029190610b98565b610701565b6040516102149190610bf0565b60405180910390f35b61023760048036038101906102329190610d08565b610717565b6040516102449190610c18565b60405180910390f35b5f805461025990610d73565b80601f016020809104026020016040519081016040528092919081815260200182805461028590610d73565b80156102d05780601f106102a7576101008083540402835291602001916102d0565b820191905f5260205f20905b8154815290600101906020018083116102b357829003601f168201915b505050505081565b5f8160055f3373ffffffffffffffffffffffffffffffffffffffff1673ffffffffffffffffffffffffffffffffffffffff1681526020019081526020015f205f8573ffffffffffffffffffffffffffffffffffffffff1673ffffffffffffffffffffffffffffffffffffffff1681526020019081526020015f20819055508273ffffffffffffffffffffffffffffffffffffffff163373ffffffffffffffffffffffffffffffffffffffff167f8c5be1e5ebec7d5bd14f71427d1e84f3dd0314c0f7b2291e5b200ac8c7c3b925846040516103b39190610c18565b60405180910390a36001905092915050565b60035481565b5f5f60055f8673ffffffffffffffffffffffffffffffffffffffff1673ffffffffffffffffffffffffffffffffffffffff1681526020019081526020015f205f3373ffffffffffffffffffffffffffffffffffffffff1673ffffffffffffffffffffffffffffffffffffffff1681526020019081526020015f205490508473ffffffffffffffffffffffffffffffffffffffff163373ffffffffffffffffffffffffffffffffffffffff16141580156104a457507fffffffffffffffffffffffffffffffffffffffffffffffffffffffffffffffff8114155b1561057557828110156104ec576040517f08c379a00000000000000000000000000000000000000000000000000000000081526004016104e390610ded565b60405180910390fd5b82816104f89190610e38565b60055f8773ffffffffffffffffffffffffffffffffffffffff1673ffffffffffffffffffffffffffffffffffffffff1681526020019081526020015f205f3373ffffffffffffffffffffffffffffffffffffffff1673ffffffffffffffffffffffffffffffffffffffff1681526020019081526020015f20819055505b610580858585610737565b60019150509392505050565b60025f9054906101000a900460ff1681565b60065f9054906101000a900473ffffffffffffffffffffffffffffffffffffffff1673ffffffffffffffffffffffffffffffffffffffff163373ffffffffffffffffffffffffffffffffffffffff161461062d576040517f08c379a000000000000000000000000000000000000000000000000000000000815260040161062490610eb5565b60405180910390fd5b6106378282610935565b5050565b6004602052805f5260405f205f915090505481565b60065f9054906101000a900473ffffffffffffffffffffffffffffffffffffffff1681565b6001805461068290610d73565b80601f01602080910402602001604051908101604052809291908181526020018280546106ae90610d73565b80156106f95780601f106106d0576101008083540402835291602001916106f9565b820191905f5260205f20905b8154815290600101906020018083116106dc57829003601f168201915b505050505081565b5f61070d338484610737565b6001905092915050565b6005602052815f5260405f20602052805f5260405f205f91509150505481565b8060045f8573ffffffffffffffffffffffffffffffffffffffff1673ffffffffffffffffffffffffffffffffffffffff1681526020019081526020015f205410156107b7576040517f08c379a00000000000000000000000000000000000000000000000000000000081526004016107ae90610f1d565b60405180910390fd5b5f73ffffffffffffffffffffffffffffffffffffffff168273ffffffffffffffffffffffffffffffffffffffff1603610825576040517f08c379a000000000000000000000000000000000000000000000000000000000815260040161081c90610f85565b60405180910390fd5b8060045f8573ffffffffffffffffffffffffffffffffffffffff1673ffffffffffffffffffffffffffffffffffffffff1681526020019081526020015f205f8282546108719190610e38565b925050819055508060045f8473ffffffffffffffffffffffffffffffffffffffff1673ffffffffffffffffffffffffffffffffffffffff1681526020019081526020015f205f8282546108c49190610fa3565b925050819055508173ffffffffffffffffffffffffffffffffffffffff168373ffffffffffffffffffffffffffffffffffffffff167fddf252ad1be2c89b69c2b068fc378daa952ba7f163c4a11628f55a4df523b3ef836040516109289190610c18565b60405180910390a3505050565b5f73ffffffffffffffffffffffffffffffffffffffff168273ffffffffffffffffffffffffffffffffffffffff16036109a3576040517f08c379a000000000000000000000000000000000000000000000000000000000815260040161099a90611020565b60405180910390fd5b8060035f8282546109b49190610fa3565b925050819055508060045f8473ffffffffffffffffffffffffffffffffffffffff1673ffffffffffffffffffffffffffffffffffffffff1681526020019081526020015f205f828254610a079190610fa3565b925050819055508173ffffffffffffffffffffffffffffffffffffffff165f73ffffffffffffffffffffffffffffffffffffffff167fddf252ad1be2c89b69c2b068fc378daa952ba7f163c4a11628f55a4df523b3ef83604051610a6b9190610c18565b60405180910390a35050565b5f81519050919050565b5f82825260208201905092915050565b8281835e5f83830152505050565b5f601f19601f8301169050919050565b5f610ab982610a77565b610ac38185610a81565b9350610ad3818560208601610a91565b610adc81610a9f565b840191505092915050565b5f6020820190508181035f830152610aff8184610aaf565b905092915050565b5f5ffd5b5f73ffffffffffffffffffffffffffffffffffffffff82169050919050565b5f610b3482610b0b565b9050919050565b610b4481610b2a565b8114610b4e575f5ffd5b50565b5f81359050610b5f81610b3b565b92915050565b5f819050919050565b610b7781610b65565b8114610b81575f5ffd5b50565b5f81359050610b9281610b6e565b92915050565b5f5f60408385031215610bae57610bad610b07565b5b5f610bbb85828601610b51565b9250506020610bcc85828601610b84565b9150509250929050565b5f8115159050919050565b610bea81610bd6565b82525050565b5f602082019050610c035f830184610be1565b92915050565b610c1281610b65565b82525050565b5f602082019050610c2b5f830184610c09565b92915050565b5f5f5f60608486031215610c4857610c47610b07565b5b5f610c5586828701610b51565b9350506020610c6686828701610b51565b9250506040610c7786828701610b84565b9150509250925092565b5f60ff82169050919050565b610c9681610c81565b82525050565b5f602082019050610caf5f830184610c8d565b92915050565b5f60208284031215610cca57610cc9610b07565b5b5f610cd784828501610b51565b91505092915050565b610ce981610b2a565b82525050565b5f602082019050610d025f830184610ce0565b92915050565b5f5f60408385031215610d1e57610d1d610b07565b5b5f610d2b85828601610b51565b9250506020610d3c85828601610b51565b9150509250929050565b7f4e487b71000000000000000000000000000000000000000000000000000000005f52602260045260245ffd5b5f6002820490506001821680610d8a57607f821691505b602082108103610d9d57610d9c610d46565b5b50919050565b7f616c6c6f77616e636500000000000000000000000000000000000000000000005f82015250565b5f610dd7600983610a81565b9150610de282610da3565b602082019050919050565b5f6020820190508181035f830152610e0481610dcb565b9050919050565b7f4e487b71000000000000000000000000000000000000000000000000000000005f52601160045260245ffd5b5f610e4282610b65565b9150610e4d83610b65565b9250828203905081811115610e6557610e64610e0b565b5b92915050565b7f6f6e6c79206f776e6572000000000000000000000000000000000000000000005f82015250565b5f610e9f600a83610a81565b9150610eaa82610e6b565b602082019050919050565b5f6020820190508181035f830152610ecc81610e93565b9050919050565b7f696e73756666696369656e7400000000000000000000000000000000000000005f82015250565b5f610f07600c83610a81565b9150610f1282610ed3565b602082019050919050565b5f6020820190508181035f830152610f3481610efb565b9050919050565b7f746f2030000000000000000000000000000000000000000000000000000000005f82015250565b5f610f6f600483610a81565b9150610f7a82610f3b565b602082019050919050565b5f6020820190508181035f830152610f9c81610f63565b9050919050565b5f610fad82610b65565b9150610fb883610b65565b9250828201905080821115610fd057610fcf610e0b565b5b92915050565b7f6d696e7420746f207a65726f00000000000000000000000000000000000000005f82015250565b5f61100a600c83610a81565b915061101582610fd6565b602082019050919050565b5f6020820190508181035f83015261103781610ffe565b905091905056fea26469706673582212202206c7dab65d8ad67bd563800260ce75c66178e2d00a355724ef3c97fbdcedc064736f6c634300081e0033608060405260646001556801a055690d9db800006003556b037790a0e8714009b49c00006004556b033b2e3c9fd0803ce8000000600555348015610041575f5ffd5b50604051611c85380380611c858339818101604052810190610063919061014e565b60015f819055503360025f6101000a81548173ffffffffffffffffffffffffffffffffffffffff021916908373ffffffffffffffffffffffffffffffffffffffff16021790555080600a5f6101000a81548173ffffffffffffffffffffffffffffffffffffffff021916908373ffffffffffffffffffffffffffffffffffffffff16021790555050610179565b5f5ffd5b5f73ffffffffffffffffffffffffffffffffffffffff82169050919050565b5f61011d826100f4565b9050919050565b61012d81610113565b8114610137575f5ffd5b50565b5f8151905061014881610124565b92915050565b5f60208284031215610163576101626100f0565b5b5f6101708482850161013a565b91505092915050565b611aff806101865f395ff3fe608060405260043610610117575f3560e01c806372c27b621161009f578063e4849b3211610063578063e4849b321461039c578063e80cfa5e146103d8578063eced552614610402578063fa0339b41461042c578063fc0c546a1461045657610126565b806372c27b62146102b457806378ac6344146102dc578063a6f2ae3a14610318578063cc27900914610336578063d96868851461036057610126565b80635b66f21e116100e65780635b66f21e146101d05780635ed9ebfc146101fa57806360659a921461022457806361d027b31461024e57806370a082311461027857610126565b80630d86419a1461012a57806318160ddd14610152578063398482d81461017c5780634bd387e1146101a657610126565b3661012657610124610480565b005b5f5ffd5b348015610135575f5ffd5b50610150600480360381019061014b91906111c2565b61074e565b005b34801561015d575f5ffd5b506101666109b3565b604051610173919061120f565b60405180910390f35b348015610187575f5ffd5b506101906109b9565b60405161019d919061120f565b60405180910390f35b3480156101b1575f5ffd5b506101ba610a14565b6040516101c7919061120f565b60405180910390f35b3480156101db575f5ffd5b506101e4610a1a565b6040516101f1919061120f565b60405180910390f35b348015610205575f5ffd5b5061020e610a30565b60405161021b919061120f565b60405180910390f35b34801561022f575f5ffd5b50610238610a36565b604051610245919061120f565b60405180910390f35b348015610259575f5ffd5b50610262610a3c565b60405161026f9190611237565b60405180910390f35b348015610283575f5ffd5b5061029e60048036038101906102999190611250565b610a61565b6040516102ab919061120f565b60405180910390f35b3480156102bf575f5ffd5b506102da60048036038101906102d5919061127b565b610a76565b005b3480156102e7575f5ffd5b5061030260048036038101906102fd919061127b565b610b95565b60405161030f919061120f565b60405180910390f35b610320610480565b60405161032d919061120f565b60405180910390f35b348015610341575f5ffd5b5061034a610bfc565b604051610357919061120f565b60405180910390f35b34801561036b575f5ffd5b506103866004803603810190610381919061127b565b610c02565b604051610393919061120f565b60405180910390f35b3480156103a7575f5ffd5b506103c260048036038101906103bd919061127b565b610c69565b6040516103cf919061120f565b60405180910390f35b3480156103e3575f5ffd5b506103ec6110a7565b6040516103f9919061120f565b60405180910390f35b34801561040d575f5ffd5b506104166110ad565b604051610423919061120f565b60405180910390f35b348015610437575f5ffd5b506104406110b9565b60405161044d919061120f565b60405180910390f35b348015610461575f5ffd5b5061046a6110bf565b6040516104779190611237565b60405180910390f35b5f6104896110e4565b5f34116104cb576040517f08c379a00000000000000000000000000000000000000000000000000000000081526004016104c290611300565b60405180910390fd5b5f612710600154346104dd919061134b565b6104e791906113b9565b90505f81346104f691906113e9565b90505f61050282610c02565b90505f8111610546576040517f08c379a000000000000000000000000000000000000000000000000000000000815260040161053d90611466565b60405180910390fd5b60045481111561058b576040517f08c379a0000000000000000000000000000000000000000000000000000000008152600401610582906114ce565b60405180910390fd5b8160035461059991906114ec565b600381905550806004546105ad91906113e9565b6004819055508060065f8282546105c491906114ec565b925050819055508160075f8282546105dc91906114ec565b925050819055508260085f8282546105f491906114ec565b925050819055508060095f3373ffffffffffffffffffffffffffffffffffffffff1673ffffffffffffffffffffffffffffffffffffffff1681526020019081526020015f205f82825461064791906114ec565b92505081905550600a5f9054906101000a900473ffffffffffffffffffffffffffffffffffffffff1673ffffffffffffffffffffffffffffffffffffffff1663a9059cbb33836040518363ffffffff1660e01b81526004016106aa92919061151f565b6020604051808303815f875af11580156106c6573d5f5f3e3d5ffd5b505050506040513d601f19601f820116820180604052508101906106ea919061157b565b503373ffffffffffffffffffffffffffffffffffffffff167fedba86fd2b22962d534e70ad9b0ff8730de46f636146f2bab6a72cbb1ebbcc53348584604051610735939291906115a6565b60405180910390a280935050505061074b611128565b90565b6107566110e4565b60025f9054906101000a900473ffffffffffffffffffffffffffffffffffffffff1673ffffffffffffffffffffffffffffffffffffffff163373ffffffffffffffffffffffffffffffffffffffff16146107e5576040517f08c379a00000000000000000000000000000000000000000000000000000000081526004016107dc90611625565b60405180910390fd5b5f73ffffffffffffffffffffffffffffffffffffffff168273ffffffffffffffffffffffffffffffffffffffff1603610853576040517f08c379a000000000000000000000000000000000000000000000000000000000815260040161084a9061168d565b60405180910390fd5b600854811115610898576040517f08c379a000000000000000000000000000000000000000000000000000000000815260040161088f906116f5565b60405180910390fd5b8060085f8282546108a991906113e9565b925050819055505f8273ffffffffffffffffffffffffffffffffffffffff16826040516108d590611740565b5f6040518083038185875af1925050503d805f811461090f576040519150601f19603f3d011682016040523d82523d5f602084013e610914565b606091505b5050905080610958576040517f08c379a000000000000000000000000000000000000000000000000000000000815260040161094f9061179e565b60405180910390fd5b8273ffffffffffffffffffffffffffffffffffffffff167f41fdd680478135993bc53fb2ffaf9560951b57ef62ff6badd02b61e018b4f17f8360405161099e919061120f565b60405180910390a2506109af611128565b5050565b60055481565b5f5f600454036109eb577fffffffffffffffffffffffffffffffffffffffffffffffffffffffffffffffff9050610a11565b600454670de0b6b3a7640000600354610a04919061134b565b610a0e91906113b9565b90505b90565b60035481565b5f600454600354610a2b919061134b565b905090565b60065481565b60045481565b60025f9054906101000a900473ffffffffffffffffffffffffffffffffffffffff1681565b6009602052805f5260405f205f915090505481565b60025f9054906101000a900473ffffffffffffffffffffffffffffffffffffffff1673ffffffffffffffffffffffffffffffffffffffff163373ffffffffffffffffffffffffffffffffffffffff1614610b05576040517f08c379a0000000000000000000000000000000000000000000000000000000008152600401610afc90611625565b60405180910390fd5b612710811115610b4a576040517f08c379a0000000000000000000000000000000000000000000000000000000008152600401610b4190611806565b60405180910390fd5b806001819055507f0cba168cfa7900657e5f8cc53d6f52ebbfa3a9f568941b465cc4f731c60c95b2600354600454600154604051610b8a939291906115a6565b60405180910390a150565b5f5f8203610ba5575f9050610bf7565b5f60035490505f60045490505f8183610bbe919061134b565b90505f8583610bcd91906114ec565b90505f8183610bdc91906113b9565b90505f8186610beb91906113e9565b90508096505050505050505b919050565b60085481565b5f5f8203610c12575f9050610c64565b5f60035490505f60045490505f8183610c2b919061134b565b90505f8584610c3a91906114ec565b90505f8183610c4991906113b9565b90505f8185610c5891906113e9565b90508096505050505050505b919050565b5f610c726110e4565b5f8211610cb4576040517f08c379a0000000000000000000000000000000000000000000000000000000008152600401610cab9061186e565b60405180910390fd5b8160095f3373ffffffffffffffffffffffffffffffffffffffff1673ffffffffffffffffffffffffffffffffffffffff1681526020019081526020015f20541015610d34576040517f08c379a0000000000000000000000000000000000000000000000000000000008152600401610d2b906118d6565b60405180910390fd5b600654821115610d79576040517f08c379a0000000000000000000000000000000000000000000000000000000008152600401610d709061193e565b60405180910390fd5b5f610d8383610b95565b90505f8111610dc7576040517f08c379a0000000000000000000000000000000000000000000000000000000008152600401610dbe906119a6565b60405180910390fd5b80471015610e0a576040517f08c379a0000000000000000000000000000000000000000000000000000000008152600401610e0190611a0e565b60405180910390fd5b5f61271060015483610e1c919061134b565b610e2691906113b9565b90505f8183610e3591906113e9565b905082600354610e4591906113e9565b60038190555084600454610e5991906114ec565b6004819055508460065f828254610e7091906113e9565b925050819055508060075f828254610e8891906113e9565b925050819055508160085f828254610ea091906114ec565b925050819055508460095f3373ffffffffffffffffffffffffffffffffffffffff1673ffffffffffffffffffffffffffffffffffffffff1681526020019081526020015f205f828254610ef391906113e9565b92505081905550600a5f9054906101000a900473ffffffffffffffffffffffffffffffffffffffff1673ffffffffffffffffffffffffffffffffffffffff166323b872dd3330886040518463ffffffff1660e01b8152600401610f5893929190611a2c565b6020604051808303815f875af1158015610f74573d5f5f3e3d5ffd5b505050506040513d601f19601f82011682018060405250810190610f98919061157b565b505f3373ffffffffffffffffffffffffffffffffffffffff1682604051610fbe90611740565b5f6040518083038185875af1925050503d805f8114610ff8576040519150601f19603f3d011682016040523d82523d5f602084013e610ffd565b606091505b5050905080611041576040517f08c379a000000000000000000000000000000000000000000000000000000000815260040161103890611aab565b60405180910390fd5b3373ffffffffffffffffffffffffffffffffffffffff167fe029f26dbcf8c42dd2f352c10214a7fc26773dc62482c6241334a0402ac09a8087858560405161108b939291906115a6565b60405180910390a2819450505050506110a2611128565b919050565b60015481565b670de0b6b3a764000081565b60075481565b600a5f9054906101000a900473ffffffffffffffffffffffffffffffffffffffff1681565b60025f540361111f576040517f3ee5aeb500000000000000000000000000000000000000000000000000000000815260040160405180910390fd5b60025f81905550565b60015f81905550565b5f5ffd5b5f73ffffffffffffffffffffffffffffffffffffffff82169050919050565b5f61115e82611135565b9050919050565b61116e81611154565b8114611178575f5ffd5b50565b5f8135905061118981611165565b92915050565b5f819050919050565b6111a18161118f565b81146111ab575f5ffd5b50565b5f813590506111bc81611198565b92915050565b5f5f604083850312156111d8576111d7611131565b5b5f6111e58582860161117b565b92505060206111f6858286016111ae565b9150509250929050565b6112098161118f565b82525050565b5f6020820190506112225f830184611200565b92915050565b61123181611154565b82525050565b5f60208201905061124a5f830184611228565b92915050565b5f6020828403121561126557611264611131565b5b5f6112728482850161117b565b91505092915050565b5f602082840312156112905761128f611131565b5b5f61129d848285016111ae565b91505092915050565b5f82825260208201905092915050565b7f7a65726f204554480000000000000000000000000000000000000000000000005f82015250565b5f6112ea6008836112a6565b91506112f5826112b6565b602082019050919050565b5f6020820190508181035f830152611317816112de565b9050919050565b7f4e487b71000000000000000000000000000000000000000000000000000000005f52601160045260245ffd5b5f6113558261118f565b91506113608361118f565b925082820261136e8161118f565b915082820484148315176113855761138461131e565b5b5092915050565b7f4e487b71000000000000000000000000000000000000000000000000000000005f52601260045260245ffd5b5f6113c38261118f565b91506113ce8361118f565b9250826113de576113dd61138c565b5b828204905092915050565b5f6113f38261118f565b91506113fe8361118f565b92508282039050818111156114165761141561131e565b5b92915050565b7f7a65726f20746f6b656e73206f757400000000000000000000000000000000005f82015250565b5f611450600f836112a6565b915061145b8261141c565b602082019050919050565b5f6020820190508181035f83015261147d81611444565b9050919050565b7f6e6f7420656e6f75676820746f6b656e73206c656674000000000000000000005f82015250565b5f6114b86016836112a6565b91506114c382611484565b602082019050919050565b5f6020820190508181035f8301526114e5816114ac565b9050919050565b5f6114f68261118f565b91506115018361118f565b92508282019050808211156115195761151861131e565b5b92915050565b5f6040820190506115325f830185611228565b61153f6020830184611200565b9392505050565b5f8115159050919050565b61155a81611546565b8114611564575f5ffd5b50565b5f8151905061157581611551565b92915050565b5f602082840312156115905761158f611131565b5b5f61159d84828501611567565b91505092915050565b5f6060820190506115b95f830186611200565b6115c66020830185611200565b6115d36040830184611200565b949350505050565b7f6f6e6c79207472656173757279000000000000000000000000000000000000005f82015250565b5f61160f600d836112a6565b915061161a826115db565b602082019050919050565b5f6020820190508181035f83015261163c81611603565b9050919050565b7f746f3d30000000000000000000000000000000000000000000000000000000005f82015250565b5f6116776004836112a6565b915061168282611643565b602082019050919050565b5f6020820190508181035f8301526116a48161166b565b9050919050565b7f65786365656473206163637275656400000000000000000000000000000000005f82015250565b5f6116df600f836112a6565b91506116ea826116ab565b602082019050919050565b5f6020820190508181035f83015261170c816116d3565b9050919050565b5f81905092915050565b50565b5f61172b5f83611713565b91506117368261171d565b5f82019050919050565b5f61174a82611720565b9150819050919050565b7f7769746864726177206661696c656400000000000000000000000000000000005f82015250565b5f611788600f836112a6565b915061179382611754565b602082019050919050565b5f6020820190508181035f8301526117b58161177c565b9050919050565b7f666565203e2031303025000000000000000000000000000000000000000000005f82015250565b5f6117f0600a836112a6565b91506117fb826117bc565b602082019050919050565b5f6020820190508181035f83015261181d816117e4565b9050919050565b7f7a65726f000000000000000000000000000000000000000000000000000000005f82015250565b5f6118586004836112a6565b915061186382611824565b602082019050919050565b5f6020820190508181035f8301526118858161184c565b9050919050565b7f696e73756666696369656e742062616c616e63650000000000000000000000005f82015250565b5f6118c06014836112a6565b91506118cb8261188c565b602082019050919050565b5f6020820190508181035f8301526118ed816118b4565b9050919050565b7f6275726e203e20736f6c640000000000000000000000000000000000000000005f82015250565b5f611928600b836112a6565b9150611933826118f4565b602082019050919050565b5f6020820190508181035f8301526119558161191c565b9050919050565b7f7a65726f20455448206f757400000000000000000000000000000000000000005f82015250565b5f611990600c836112a6565b915061199b8261195c565b602082019050919050565b5f6020820190508181035f8301526119bd81611984565b9050919050565b7f696e73756666696369656e7420455448206c69717569646974790000000000005f82015250565b5f6119f8601a836112a6565b9150611a03826119c4565b602082019050919050565b5f6020820190508181035f830152611a25816119ec565b9050919050565b5f606082019050611a3f5f830186611228565b611a4c6020830185611228565b611a596040830184611200565b949350505050565b7f4554482073656e64206661696c656400000000000000000000000000000000005f82015250565b5f611a95600f836112a6565b9150611aa082611a61565b602082019050919050565b5f6020820190508181035f830152611ac281611a89565b905091905056fea264697066735822122049e37e62076b9b3002a2f10b947f236b950e05217175261ec590240986168f4864736f6c634300081e0033a26469706673582212207c2c2cb3ca57d0209dfef32ef3385e7aeeed8a209a606833fcfbdf8ad9fd0af464736f6c634300081e0033","linkReferences":{}},"methodIdentifiers":{"createToken(string,string,uint256)":"5b060530","owner()":"8da5cb5b","router()":"f887ea40","setRouter(address)":"c0d78655","tokenToMarket(address)":"f02db70d"},"id":22}