{"abi":[{"type":"constructor","inputs":[{"name":"_token","type":"address","internalType":"address"},{"name":"_router","type":"address","internalType":"address"},{"name":"_a","type":"uint256","internalType":"uint256"},{"name":"_b","type":"uint256","internalType":"uint256"},{"name":"_tokensAllocated","type":"uint256","internalType":"uint256"},{"name":"_targetEth","type":"uint256","internalType":"uint256"},{"name":"_treasuryFeeBps","type":"uint256","internalType":"uint256"},{"name":"_admin","type":"address","internalType":"address"}],"stateMutability":"nonpayable"},{"type":"receive","stateMutability":"payable"},{"type":"function","name":"a","inputs":[],"outputs":[{"name":"","type":"uint256","internalType":"uint256"}],"stateMutability":"view"},{"type":"function","name":"actualEth","inputs":[],"outputs":[{"name":"","type":"uint256","internalType":"uint256"}],"stateMutability":"view"},{"type":"function","name":"addLiquidityToUniswap","inputs":[{"name":"tokenAmountDesired","type":"uint256","internalType":"uint256"},{"name":"amountTokenMin","type":"uint256","internalType":"uint256"},{"name":"amountETHMin","type":"uint256","internalType":"uint256"},{"name":"deadline","type":"uint256","internalType":"uint256"}],"outputs":[{"name":"pair","type":"address","internalType":"address"}],"stateMutability":"nonpayable"},{"type":"function","name":"admin","inputs":[],"outputs":[{"name":"","type":"address","internalType":"address"}],"stateMutability":"view"},{"type":"function","name":"b","inputs":[],"outputs":[{"name":"","type":"uint256","internalType":"uint256"}],"stateMutability":"view"},{"type":"function","name":"bump","inputs":[],"outputs":[{"name":"","type":"uint8","internalType":"uint8"}],"stateMutability":"view"},{"type":"function","name":"buy","inputs":[],"outputs":[{"name":"tokensBought","type":"uint256","internalType":"uint256"}],"stateMutability":"payable"},{"type":"function","name":"calculateEthPayout","inputs":[{"name":"tokensInUnits","type":"uint256","internalType":"uint256"}],"outputs":[{"name":"","type":"uint256","internalType":"uint256"}],"stateMutability":"view"},{"type":"function","name":"calculateTokensBought","inputs":[{"name":"ethInWei","type":"uint256","internalType":"uint256"}],"outputs":[{"name":"","type":"uint256","internalType":"uint256"}],"stateMutability":"view"},{"type":"function","name":"ethRaised","inputs":[],"outputs":[{"name":"","type":"uint256","internalType":"uint256"}],"stateMutability":"view"},{"type":"function","name":"getCurrentPrice","inputs":[],"outputs":[{"name":"","type":"uint256","internalType":"uint256"}],"stateMutability":"view"},{"type":"function","name":"isBlacklisted","inputs":[],"outputs":[{"name":"","type":"bool","internalType":"bool"}],"stateMutability":"view"},{"type":"function","name":"isPaused","inputs":[],"outputs":[{"name":"","type":"bool","internalType":"bool"}],"stateMutability":"view"},{"type":"function","name":"marketCap","inputs":[],"outputs":[{"name":"","type":"uint256","internalType":"uint256"}],"stateMutability":"view"},{"type":"function","name":"router","inputs":[],"outputs":[{"name":"","type":"address","internalType":"contract IUniswapV2Router02"}],"stateMutability":"view"},{"type":"function","name":"sell","inputs":[{"name":"tokenAmount","type":"uint256","internalType":"uint256"}],"outputs":[{"name":"ethOut","type":"uint256","internalType":"uint256"}],"stateMutability":"nonpayable"},{"type":"function","name":"setBlacklisted","inputs":[{"name":"bflag","type":"bool","internalType":"bool"}],"outputs":[],"stateMutability":"nonpayable"},{"type":"function","name":"setPaused","inputs":[{"name":"p","type":"bool","internalType":"bool"}],"outputs":[],"stateMutability":"nonpayable"},{"type":"function","name":"setTreasuryFee","inputs":[{"name":"bps","type":"uint256","internalType":"uint256"}],"outputs":[],"stateMutability":"nonpayable"},{"type":"function","name":"soldTokens","inputs":[],"outputs":[{"name":"","type":"uint256","internalType":"uint256"}],"stateMutability":"view"},{"type":"function","name":"targetEth","inputs":[],"outputs":[{"name":"","type":"uint256","internalType":"uint256"}],"stateMutability":"view"},{"type":"function","name":"token","inputs":[],"outputs":[{"name":"","type":"address","internalType":"address"}],"stateMutability":"view"},{"type":"function","name":"tokensAvailable","inputs":[],"outputs":[{"name":"","type":"uint256","internalType":"uint256"}],"stateMutability":"view"},{"type":"function","name":"totalSupply","inputs":[],"outputs":[{"name":"","type":"uint256","internalType":"uint256"}],"stateMutability":"view"},{"type":"function","name":"treasuryFee","inputs":[],"outputs":[{"name":"","type":"uint256","internalType":"uint256"}],"stateMutability":"view"},{"type":"function","name":"uniswapFactory","inputs":[],"outputs":[{"name":"","type":"address","internalType":"address"}],"stateMutability":"view"},{"type":"function","name":"virtualEth","inputs":[],"outputs":[{"name":"","type":"uint256","internalType":"uint256"}],"stateMutability":"view"},{"type":"function","name":"weth","inputs":[],"outputs":[{"name":"","type":"address","internalType":"address"}],"stateMutability":"view"},{"type":"function","name":"withdrawTreasury","inputs":[{"name":"to","type":"address","internalType":"address payable"}],"outputs":[],"stateMutability":"nonpayable"},{"type":"event","name":"Bought","inputs":[{"name":"buyer","type":"address","indexed":true,"internalType":"address"},{"name":"ethSpent","type":"uint256","indexed":false,"internalType":"uint256"},{"name":"tokensBought","type":"uint256","indexed":false,"internalType":"uint256"}],"anonymous":false},{"type":"event","name":"LiquidityAdded","inputs":[{"name":"pair","type":"address","indexed":true,"internalType":"address"},{"name":"tokenAmount","type":"uint256","indexed":false,"internalType":"uint256"},{"name":"ethAmount","type":"uint256","indexed":false,"internalType":"uint256"}],"anonymous":false},{"type":"event","name":"Sold","inputs":[{"name":"seller","type":"address","indexed":true,"internalType":"address"},{"name":"tokensBurned","type":"uint256","indexed":false,"internalType":"uint256"},{"name":"ethReturned","type":"uint256","indexed":false,"internalType":"uint256"}],"anonymous":false},{"type":"event","name":"TreasuryWithdrawn","inputs":[{"name":"to","type":"address","indexed":true,"internalType":"address"},{"name":"amount","type":"uint256","indexed":false,"internalType":"uint256"}],"anonymous":false}],"bytecode":{"object":"0x608060405234801561000f575f80fd5b50604051612ce9380380612ce9833981810160405281019061003191906103be565b875f806101000a81548173ffffffffffffffffffffffffffffffffffffffff021916908373ffffffffffffffffffffffffffffffffffffffff16021790555086600e5f6101000a81548173ffffffffffffffffffffffffffffffffffffffff021916908373ffffffffffffffffffffffffffffffffffffffff160217905550600e5f9054906101000a900473ffffffffffffffffffffffffffffffffffffffff1673ffffffffffffffffffffffffffffffffffffffff1663ad5c46486040518163ffffffff1660e01b8152600401602060405180830381865afa15801561011a573d5f803e3d5ffd5b505050506040513d601f19601f8201168201806040525081019061013e919061046f565b600f5f6101000a81548173ffffffffffffffffffffffffffffffffffffffff021916908373ffffffffffffffffffffffffffffffffffffffff160217905550600e5f9054906101000a900473ffffffffffffffffffffffffffffffffffffffff1673ffffffffffffffffffffffffffffffffffffffff1663c45a01556040518163ffffffff1660e01b8152600401602060405180830381865afa1580156101e7573d5f803e3d5ffd5b505050506040513d601f19601f8201168201806040525081019061020b919061046f565b60105f6101000a81548173ffffffffffffffffffffffffffffffffffffffff021916908373ffffffffffffffffffffffffffffffffffffffff1602179055508560098190555084600a819055508360028190555082600c819055508160078190555080600b5f6101000a81548173ffffffffffffffffffffffffffffffffffffffff021916908373ffffffffffffffffffffffffffffffffffffffff1602179055508773ffffffffffffffffffffffffffffffffffffffff166318160ddd6040518163ffffffff1660e01b8152600401602060405180830381865afa1580156102f6573d5f803e3d5ffd5b505050506040513d601f19601f8201168201806040525081019061031a919061049a565b60038190555050505050505050506104c5565b5f80fd5b5f73ffffffffffffffffffffffffffffffffffffffff82169050919050565b5f61035a82610331565b9050919050565b61036a81610350565b8114610374575f80fd5b50565b5f8151905061038581610361565b92915050565b5f819050919050565b61039d8161038b565b81146103a7575f80fd5b50565b5f815190506103b881610394565b92915050565b5f805f805f805f80610100898b0312156103db576103da61032d565b5b5f6103e88b828c01610377565b98505060206103f98b828c01610377565b975050604061040a8b828c016103aa565b965050606061041b8b828c016103aa565b955050608061042c8b828c016103aa565b94505060a061043d8b828c016103aa565b93505060c061044e8b828c016103aa565b92505060e061045f8b828c01610377565b9150509295985092959890939650565b5f602082840312156104845761048361032d565b5b5f61049184828501610377565b91505092915050565b5f602082840312156104af576104ae61032d565b5b5f6104bc848285016103aa565b91505092915050565b612817806104d25f395ff3fe6080604052600436106101c5575f3560e01c806378ac6344116100f6578063e4849b3211610094578063f887ea4011610063578063f887ea4014610626578063fa0339b414610650578063fc0c546a1461067a578063fddf0fc0146106a4576101d4565b8063e4849b321461056e578063eb91d37e146105aa578063f851a440146105d4578063f86c9e9a146105fe576101d4565b8063a94d8811116100d0578063a94d8811146104b4578063b187bd26146104de578063cc32d17614610508578063d968688514610532576101d4565b806378ac6344146104305780638bdb2afa1461046c578063a6f2ae3a14610496576101d4565b80634bd387e11161016357806360659a921161013d57806360659a921461038a57806365d4bdab146103b457806368110b2f146103de57806377e741c714610408576101d4565b80634bd387e11461030c5780634df7e3d0146103365780635ed9ebfc14610360576101d4565b80632c135b931161019f5780632c135b931461025457806336efbc831461027e5780633fc8cef3146102a657806340242cb0146102d0576101d4565b80630dbe671f146101d857806316c38b3c1461020257806318160ddd1461022a576101d4565b366101d4576101d26106ce565b005b5f80fd5b3480156101e3575f80fd5b506101ec610a4f565b6040516101f99190611973565b60405180910390f35b34801561020d575f80fd5b50610228600480360381019061022391906119c5565b610a55565b005b348015610235575f80fd5b5061023e610b01565b60405161024b9190611973565b60405180910390f35b34801561025f575f80fd5b50610268610b07565b6040516102759190611973565b60405180910390f35b348015610289575f80fd5b506102a4600480360381019061029f91906119c5565b610b0d565b005b3480156102b1575f80fd5b506102ba610bb8565b6040516102c79190611a2f565b60405180910390f35b3480156102db575f80fd5b506102f660048036038101906102f19190611a72565b610bdd565b6040516103039190611a2f565b60405180910390f35b348015610317575f80fd5b50610320611061565b60405161032d9190611973565b60405180910390f35b348015610341575f80fd5b5061034a611067565b6040516103579190611973565b60405180910390f35b34801561036b575f80fd5b5061037461106d565b6040516103819190611973565b60405180910390f35b348015610395575f80fd5b5061039e611073565b6040516103ab9190611973565b60405180910390f35b3480156103bf575f80fd5b506103c8611079565b6040516103d59190611973565b60405180910390f35b3480156103e9575f80fd5b506103f261107f565b6040516103ff9190611af1565b60405180910390f35b348015610413575f80fd5b5061042e60048036038101906104299190611b0a565b611091565b005b34801561043b575f80fd5b5061045660048036038101906104519190611b0a565b61116f565b6040516104639190611973565b60405180910390f35b348015610477575f80fd5b506104806111cb565b60405161048d9190611a2f565b60405180910390f35b61049e6106ce565b6040516104ab9190611973565b60405180910390f35b3480156104bf575f80fd5b506104c86111f0565b6040516104d59190611b44565b60405180910390f35b3480156104e9575f80fd5b506104f2611202565b6040516104ff9190611b44565b60405180910390f35b348015610513575f80fd5b5061051c611215565b6040516105299190611973565b60405180910390f35b34801561053d575f80fd5b5061055860048036038101906105539190611b0a565b61121b565b6040516105659190611973565b60405180910390f35b348015610579575f80fd5b50610594600480360381019061058f9190611b0a565b611277565b6040516105a19190611973565b60405180910390f35b3480156105b5575f80fd5b506105be6115fd565b6040516105cb9190611973565b60405180910390f35b3480156105df575f80fd5b506105e8611622565b6040516105f59190611a2f565b60405180910390f35b348015610609575f80fd5b50610624600480360381019061061f9190611b98565b611647565b005b348015610631575f80fd5b5061063a611817565b6040516106479190611c1e565b60405180910390f35b34801561065b575f80fd5b5061066461183c565b6040516106719190611973565b60405180910390f35b348015610685575f80fd5b5061068e611842565b60405161069b9190611a2f565b60405180910390f35b3480156106af575f80fd5b506106b8611865565b6040516106c59190611973565b60405180910390f35b5f600860019054906101000a900460ff161561071f576040517f08c379a000000000000000000000000000000000000000000000000000000000815260040161071690611c91565b60405180910390fd5b60085f9054906101000a900460ff161561076e576040517f08c379a000000000000000000000000000000000000000000000000000000000815260040161076590611cf9565b60405180910390fd5b5f34116107b0576040517f08c379a00000000000000000000000000000000000000000000000000000000081526004016107a790611d61565b60405180910390fd5b5f3490505f60055490505f6107c48361121b565b90506108076040518060400160405280601d81526020017f6275793a20733d25732c2064656c74613d25732c20657468496e3d257300000081525083838661186b565b5f8111610849576040517f08c379a000000000000000000000000000000000000000000000000000000000815260040161084090611dc9565b60405180910390fd5b60025481111561088e576040517f08c379a000000000000000000000000000000000000000000000000000000000815260040161088590611e31565b60405180910390fd5b5f612710600754856108a09190611e7c565b6108aa9190611eea565b90505f81856108b99190611f1a565b90508060015f8282546108cc9190611f4d565b925050819055508060045f8282546108e49190611f4d565b925050819055508260055f8282546108fc9190611f4d565b925050819055508260025f8282546109149190611f1a565b925050819055505f8054906101000a900473ffffffffffffffffffffffffffffffffffffffff1673ffffffffffffffffffffffffffffffffffffffff1663a9059cbb33856040518363ffffffff1660e01b8152600401610975929190611f80565b6020604051808303815f875af1158015610991573d5f803e3d5ffd5b505050506040513d601f19601f820116820180604052508101906109b59190611fbb565b6109f4576040517f08c379a00000000000000000000000000000000000000000000000000000000081526004016109eb90612030565b60405180910390fd5b3373ffffffffffffffffffffffffffffffffffffffff167fa9a40dec7a304e5915d11358b968c1e8d365992abf20f82285d1df1b30c8e24c8685604051610a3c92919061204e565b60405180910390a2829550505050505090565b60095481565b600b5f9054906101000a900473ffffffffffffffffffffffffffffffffffffffff1673ffffffffffffffffffffffffffffffffffffffff163373ffffffffffffffffffffffffffffffffffffffff1614610ae4576040517f08c379a0000000000000000000000000000000000000000000000000000000008152600401610adb906120bf565b60405180910390fd5b80600860016101000a81548160ff02191690831515021790555050565b60035481565b60065481565b600b5f9054906101000a900473ffffffffffffffffffffffffffffffffffffffff1673ffffffffffffffffffffffffffffffffffffffff163373ffffffffffffffffffffffffffffffffffffffff1614610b9c576040517f08c379a0000000000000000000000000000000000000000000000000000000008152600401610b93906120bf565b60405180910390fd5b8060085f6101000a81548160ff02191690831515021790555050565b600f5f9054906101000a900473ffffffffffffffffffffffffffffffffffffffff1681565b5f600b5f9054906101000a900473ffffffffffffffffffffffffffffffffffffffff1673ffffffffffffffffffffffffffffffffffffffff163373ffffffffffffffffffffffffffffffffffffffff1614610c6d576040517f08c379a0000000000000000000000000000000000000000000000000000000008152600401610c64906120bf565b60405180910390fd5b600c54600d541015610cb4576040517f08c379a0000000000000000000000000000000000000000000000000000000008152600401610cab90612127565b60405180910390fd5b5f4790505f8111610cfa576040517f08c379a0000000000000000000000000000000000000000000000000000000008152600401610cf19061218f565b60405180910390fd5b5f8611610d3c576040517f08c379a0000000000000000000000000000000000000000000000000000000008152600401610d33906121f7565b60405180910390fd5b5f8054906101000a900473ffffffffffffffffffffffffffffffffffffffff1673ffffffffffffffffffffffffffffffffffffffff1663095ea7b3600e5f9054906101000a900473ffffffffffffffffffffffffffffffffffffffff16886040518363ffffffff1660e01b8152600401610db7929190611f80565b6020604051808303815f875af1158015610dd3573d5f803e3d5ffd5b505050506040513d601f19601f82011682018060405250810190610df79190611fbb565b610e36576040517f08c379a0000000000000000000000000000000000000000000000000000000008152600401610e2d9061225f565b60405180910390fd5b5f80600e5f9054906101000a900473ffffffffffffffffffffffffffffffffffffffff1673ffffffffffffffffffffffffffffffffffffffff1663f305d719845f8054906101000a900473ffffffffffffffffffffffffffffffffffffffff168b8b8b600b5f9054906101000a900473ffffffffffffffffffffffffffffffffffffffff168c6040518863ffffffff1660e01b8152600401610edd9695949392919061227d565b60606040518083038185885af1158015610ef9573d5f803e3d5ffd5b50505050506040513d601f19601f82011682018060405250810190610f1e91906122f0565b50915091505f60105f9054906101000a900473ffffffffffffffffffffffffffffffffffffffff1673ffffffffffffffffffffffffffffffffffffffff1663c9c653965f8054906101000a900473ffffffffffffffffffffffffffffffffffffffff16600f5f9054906101000a900473ffffffffffffffffffffffffffffffffffffffff166040518363ffffffff1660e01b8152600401610fc0929190612340565b6020604051808303815f875af1158015610fdc573d5f803e3d5ffd5b505050506040513d601f19601f820116820180604052508101906110009190612391565b90508073ffffffffffffffffffffffffffffffffffffffff167fac1d76749e5447b7b16f5ab61447e1bd502f3bb4807af3b28e620d1700a6ee45848460405161104a92919061204e565b60405180910390a280945050505050949350505050565b60015481565b600a5481565b60055481565b60025481565b600c5481565b5f60149054906101000a900460ff1681565b600b5f9054906101000a900473ffffffffffffffffffffffffffffffffffffffff1673ffffffffffffffffffffffffffffffffffffffff163373ffffffffffffffffffffffffffffffffffffffff1614611120576040517f08c379a0000000000000000000000000000000000000000000000000000000008152600401611117906120bf565b60405180910390fd5b6107d0811115611165576040517f08c379a000000000000000000000000000000000000000000000000000000000815260040161115c90612406565b60405180910390fd5b8060078190555050565b5f8060015490505f60025490505f8490505f828461118d9190611e7c565b90505f828461119c9190611f4d565b90505f81836111ab9190611eea565b90505f81876111ba9190611f1a565b905080975050505050505050919050565b60105f9054906101000a900473ffffffffffffffffffffffffffffffffffffffff1681565b60085f9054906101000a900460ff1681565b600860019054906101000a900460ff1681565b60075481565b5f8060015490505f60025490505f8490505f82846112399190611e7c565b90505f82856112489190611f4d565b90505f81836112579190611eea565b90505f81866112669190611f1a565b905080975050505050505050919050565b5f600860019054906101000a900460ff16156112c8576040517f08c379a00000000000000000000000000000000000000000000000000000000081526004016112bf90611c91565b60405180910390fd5b60085f9054906101000a900460ff1615611317576040517f08c379a000000000000000000000000000000000000000000000000000000000815260040161130e90611cf9565b60405180910390fd5b5f8211611359576040517f08c379a00000000000000000000000000000000000000000000000000000000081526004016113509061246e565b60405180910390fd5b5f6005549050808311156113a2576040517f08c379a0000000000000000000000000000000000000000000000000000000008152600401611399906124d6565b60405180910390fd5b5f6113ac8461116f565b90505f612710600754836113c09190611e7c565b6113ca9190611eea565b90505f81836113d99190611f1a565b905085846113e79190611f1a565b6005819055508060045f8282546113fe9190611f1a565b925050819055508260015f8282546114169190611f1a565b925050819055505f8054906101000a900473ffffffffffffffffffffffffffffffffffffffff1673ffffffffffffffffffffffffffffffffffffffff166323b872dd3330896040518463ffffffff1660e01b8152600401611479939291906124f4565b6020604051808303815f875af1158015611495573d5f803e3d5ffd5b505050506040513d601f19601f820116820180604052508101906114b99190611fbb565b6114f8576040517f08c379a00000000000000000000000000000000000000000000000000000000081526004016114ef90612573565b60405180910390fd5b5f3373ffffffffffffffffffffffffffffffffffffffff168260405161151d906125be565b5f6040518083038185875af1925050503d805f8114611557576040519150601f19603f3d011682016040523d82523d5f602084013e61155c565b606091505b50509050806115a0576040517f08c379a00000000000000000000000000000000000000000000000000000000081526004016115979061261c565b60405180910390fd5b3373ffffffffffffffffffffffffffffffffffffffff167fbac9694ac0daa55169abd117086fe32c89401d9a3b15dd1d34e55e0aa4e47a9d88846040516115e892919061204e565b60405180910390a28195505050505050919050565b5f8060015490505f60025490505f81836116179190611eea565b905080935050505090565b600b5f9054906101000a900473ffffffffffffffffffffffffffffffffffffffff1681565b600b5f9054906101000a900473ffffffffffffffffffffffffffffffffffffffff1673ffffffffffffffffffffffffffffffffffffffff163373ffffffffffffffffffffffffffffffffffffffff16146116d6576040517f08c379a00000000000000000000000000000000000000000000000000000000081526004016116cd906120bf565b60405180910390fd5b5f4790505f811161171c576040517f08c379a000000000000000000000000000000000000000000000000000000000815260040161171390612684565b60405180910390fd5b5f8273ffffffffffffffffffffffffffffffffffffffff1682604051611741906125be565b5f6040518083038185875af1925050503d805f811461177b576040519150601f19603f3d011682016040523d82523d5f602084013e611780565b606091505b50509050806117c4576040517f08c379a00000000000000000000000000000000000000000000000000000000081526004016117bb906126ec565b60405180910390fd5b8273ffffffffffffffffffffffffffffffffffffffff167f41fdd680478135993bc53fb2ffaf9560951b57ef62ff6badd02b61e018b4f17f8360405161180a9190611973565b60405180910390a2505050565b600e5f9054906101000a900473ffffffffffffffffffffffffffffffffffffffff1681565b60045481565b5f8054906101000a900473ffffffffffffffffffffffffffffffffffffffff1681565b600d5481565b61190784848484604051602401611885949392919061276a565b6040516020818303038152906040527fa7a87853000000000000000000000000000000000000000000000000000000007bffffffffffffffffffffffffffffffffffffffffffffffffffffffff19166020820180517bffffffffffffffffffffffffffffffffffffffffffffffffffffffff838183161783525050505061190d565b50505050565b6119248161191c611927611946565b63ffffffff16565b50565b5f6a636f6e736f6c652e6c6f6790505f80835160208501845afa505050565b611951819050919050565b6119596127b4565b565b5f819050919050565b61196d8161195b565b82525050565b5f6020820190506119865f830184611964565b92915050565b5f80fd5b5f8115159050919050565b6119a481611990565b81146119ae575f80fd5b50565b5f813590506119bf8161199b565b92915050565b5f602082840312156119da576119d961198c565b5b5f6119e7848285016119b1565b91505092915050565b5f73ffffffffffffffffffffffffffffffffffffffff82169050919050565b5f611a19826119f0565b9050919050565b611a2981611a0f565b82525050565b5f602082019050611a425f830184611a20565b92915050565b611a518161195b565b8114611a5b575f80fd5b50565b5f81359050611a6c81611a48565b92915050565b5f805f8060808587031215611a8a57611a8961198c565b5b5f611a9787828801611a5e565b9450506020611aa887828801611a5e565b9350506040611ab987828801611a5e565b9250506060611aca87828801611a5e565b91505092959194509250565b5f60ff82169050919050565b611aeb81611ad6565b82525050565b5f602082019050611b045f830184611ae2565b92915050565b5f60208284031215611b1f57611b1e61198c565b5b5f611b2c84828501611a5e565b91505092915050565b611b3e81611990565b82525050565b5f602082019050611b575f830184611b35565b92915050565b5f611b67826119f0565b9050919050565b611b7781611b5d565b8114611b81575f80fd5b50565b5f81359050611b9281611b6e565b92915050565b5f60208284031215611bad57611bac61198c565b5b5f611bba84828501611b84565b91505092915050565b5f819050919050565b5f611be6611be1611bdc846119f0565b611bc3565b6119f0565b9050919050565b5f611bf782611bcc565b9050919050565b5f611c0882611bed565b9050919050565b611c1881611bfe565b82525050565b5f602082019050611c315f830184611c0f565b92915050565b5f82825260208201905092915050565b7f70617573656400000000000000000000000000000000000000000000000000005f82015250565b5f611c7b600683611c37565b9150611c8682611c47565b602082019050919050565b5f6020820190508181035f830152611ca881611c6f565b9050919050565b7f626c61636b6c69737465640000000000000000000000000000000000000000005f82015250565b5f611ce3600b83611c37565b9150611cee82611caf565b602082019050919050565b5f6020820190508181035f830152611d1081611cd7565b9050919050565b7f73656e64204554480000000000000000000000000000000000000000000000005f82015250565b5f611d4b600883611c37565b9150611d5682611d17565b602082019050919050565b5f6020820190508181035f830152611d7881611d3f565b9050919050565b7f7a65726f20746f6b656e730000000000000000000000000000000000000000005f82015250565b5f611db3600b83611c37565b9150611dbe82611d7f565b602082019050919050565b5f6020820190508181035f830152611de081611da7565b9050919050565b7f6e6f7420656e6f75676820746f6b656e73206c656674000000000000000000005f82015250565b5f611e1b601683611c37565b9150611e2682611de7565b602082019050919050565b5f6020820190508181035f830152611e4881611e0f565b9050919050565b7f4e487b71000000000000000000000000000000000000000000000000000000005f52601160045260245ffd5b5f611e868261195b565b9150611e918361195b565b9250828202611e9f8161195b565b91508282048414831517611eb657611eb5611e4f565b5b5092915050565b7f4e487b71000000000000000000000000000000000000000000000000000000005f52601260045260245ffd5b5f611ef48261195b565b9150611eff8361195b565b925082611f0f57611f0e611ebd565b5b828204905092915050565b5f611f248261195b565b9150611f2f8361195b565b9250828203905081811115611f4757611f46611e4f565b5b92915050565b5f611f578261195b565b9150611f628361195b565b9250828201905080821115611f7a57611f79611e4f565b5b92915050565b5f604082019050611f935f830185611a20565b611fa06020830184611964565b9392505050565b5f81519050611fb58161199b565b92915050565b5f60208284031215611fd057611fcf61198c565b5b5f611fdd84828501611fa7565b91505092915050565b7f7472616e73666572206661696c656400000000000000000000000000000000005f82015250565b5f61201a600f83611c37565b915061202582611fe6565b602082019050919050565b5f6020820190508181035f8301526120478161200e565b9050919050565b5f6040820190506120615f830185611964565b61206e6020830184611964565b9392505050565b7f6f6e6c792061646d696e000000000000000000000000000000000000000000005f82015250565b5f6120a9600a83611c37565b91506120b482612075565b602082019050919050565b5f6020820190508181035f8301526120d68161209d565b9050919050565b7f746172676574206e6f74207265616368656400000000000000000000000000005f82015250565b5f612111601283611c37565b915061211c826120dd565b602082019050919050565b5f6020820190508181035f83015261213e81612105565b9050919050565b7f6e6f2045544800000000000000000000000000000000000000000000000000005f82015250565b5f612179600683611c37565b915061218482612145565b602082019050919050565b5f6020820190508181035f8301526121a68161216d565b9050919050565b7f6e6f20746f6b656e7320726571756573746564000000000000000000000000005f82015250565b5f6121e1601383611c37565b91506121ec826121ad565b602082019050919050565b5f6020820190508181035f83015261220e816121d5565b9050919050565b7f617070726f7665206661696c65640000000000000000000000000000000000005f82015250565b5f612249600e83611c37565b915061225482612215565b602082019050919050565b5f6020820190508181035f8301526122768161223d565b9050919050565b5f60c0820190506122905f830189611a20565b61229d6020830188611964565b6122aa6040830187611964565b6122b76060830186611964565b6122c46080830185611a20565b6122d160a0830184611964565b979650505050505050565b5f815190506122ea81611a48565b92915050565b5f805f606084860312156123075761230661198c565b5b5f612314868287016122dc565b9350506020612325868287016122dc565b9250506040612336868287016122dc565b9150509250925092565b5f6040820190506123535f830185611a20565b6123606020830184611a20565b9392505050565b61237081611a0f565b811461237a575f80fd5b50565b5f8151905061238b81612367565b92915050565b5f602082840312156123a6576123a561198c565b5b5f6123b38482850161237d565b91505092915050565b7f6d617820323025000000000000000000000000000000000000000000000000005f82015250565b5f6123f0600783611c37565b91506123fb826123bc565b602082019050919050565b5f6020820190508181035f83015261241d816123e4565b9050919050565b7f7a65726f000000000000000000000000000000000000000000000000000000005f82015250565b5f612458600483611c37565b915061246382612424565b602082019050919050565b5f6020820190508181035f8301526124858161244c565b9050919050565b7f6275726e203e20736f6c640000000000000000000000000000000000000000005f82015250565b5f6124c0600b83611c37565b91506124cb8261248c565b602082019050919050565b5f6020820190508181035f8301526124ed816124b4565b9050919050565b5f6060820190506125075f830186611a20565b6125146020830185611a20565b6125216040830184611964565b949350505050565b7f7472616e7366657246726f6d00000000000000000000000000000000000000005f82015250565b5f61255d600c83611c37565b915061256882612529565b602082019050919050565b5f6020820190508181035f83015261258a81612551565b9050919050565b5f81905092915050565b50565b5f6125a95f83612591565b91506125b48261259b565b5f82019050919050565b5f6125c88261259e565b9150819050919050565b7f4554482073656e64206661696c656400000000000000000000000000000000005f82015250565b5f612606600f83611c37565b9150612611826125d2565b602082019050919050565b5f6020820190508181035f830152612633816125fa565b9050919050565b7f6e6f2065746800000000000000000000000000000000000000000000000000005f82015250565b5f61266e600683611c37565b91506126798261263a565b602082019050919050565b5f6020820190508181035f83015261269b81612662565b9050919050565b7f7769746864726177206661696c656400000000000000000000000000000000005f82015250565b5f6126d6600f83611c37565b91506126e1826126a2565b602082019050919050565b5f6020820190508181035f830152612703816126ca565b9050919050565b5f81519050919050565b8281835e5f83830152505050565b5f601f19601f8301169050919050565b5f61273c8261270a565b6127468185611c37565b9350612756818560208601612714565b61275f81612722565b840191505092915050565b5f6080820190508181035f8301526127828187612732565b90506127916020830186611964565b61279e6040830185611964565b6127ab6060830184611964565b95945050505050565b7f4e487b71000000000000000000000000000000000000000000000000000000005f52605160045260245ffdfea2646970667358221220772ed940446dd2c971016905d3a42ac412b36c8f926108054c17e365ef55549c64736f6c634300081a0033","linkReferences":{}},"methodIdentifiers":{"a()":"0dbe671f","actualEth()":"fa0339b4","addLiquidityToUniswap(uint256,uint256,uint256,uint256)":"40242cb0","admin()":"f851a440","b()":"4df7e3d0","bump()":"68110b2f","buy()":"a6f2ae3a","calculateEthPayout(uint256)":"78ac6344","calculateTokensBought(uint256)":"d9686885","ethRaised()":"fddf0fc0","getCurrentPrice()":"eb91d37e","isBlacklisted()":"a94d8811","isPaused()":"b187bd26","marketCap()":"2c135b93","router()":"f887ea40","sell(uint256)":"e4849b32","setBlacklisted(bool)":"36efbc83","setPaused(bool)":"16c38b3c","setTreasuryFee(uint256)":"77e741c7","soldTokens()":"5ed9ebfc","targetEth()":"65d4bdab","token()":"fc0c546a","tokensAvailable()":"60659a92","totalSupply()":"18160ddd","treasuryFee()":"cc32d176","uniswapFactory()":"8bdb2afa","virtualEth()":"4bd387e1","weth()":"3fc8cef3","withdrawTreasury(address)":"f86c9e9a"},"id":19}